{
  "abi": [
    {
      "anonymous": false,
      "inputs": [
        {
          "indexed": true,
          "internalType": "address",
          "name": "initiator",
          "type": "address"
        },
        {
          "indexed": false,
          "internalType": "address",
          "name": "contractAddress",
          "type": "address"
        }
      ],
      "name": "Deploy",
      "type": "event"
    },
    {
      "inputs": [
        {
          "internalType": "address",
          "name": "",
          "type": "address"
        },
        {
          "internalType": "uint256",
          "name": "",
          "type": "uint256"
        }
      ],
      "name": "contracts",
      "outputs": [
        {
          "internalType": "address",
          "name": "",
          "type": "address"
        }
      ],
      "stateMutability": "view",
      "type": "function"
    },
    {
      "inputs": [
        {
          "internalType": "address[]",
          "name": "_owners",
          "type": "address[]"
        },
        {
          "internalType": "uint8",
          "name": "_threshold",
          "type": "uint8"
        }
      ],
      "name": "deploy",
      "outputs": [
        {
          "internalType": "address",
          "name": "contractAddress",
          "type": "address"
        }
      ],
      "stateMutability": "nonpayable",
      "type": "function"
    }
  ],
  "bytecode": {
    "object": "0x608060405234801561001057600080fd5b506118f4806100206000396000f3fe608060405234801561001057600080fd5b50600436106100365760003560e01c8063ed23f8c31461003b578063ed547bf71461006a575b600080fd5b61004e610049366004610194565b61007d565b6040516001600160a01b03909116815260200160405180910390f35b61004e6100783660046101e5565b6100b5565b6000602052816000526040600020818154811061009957600080fd5b6000918252602090912001546001600160a01b03169150829050565b60008083836040516100c69061016b565b6100d19291906102bc565b604051809103906000f0801580156100ed573d6000803e3d6000fd5b503360008181526020818152604080832080546001810182559084529282902090920180546001600160a01b0319166001600160a01b038616908117909155915191825292945084935090917fb1a29087760d8e8f9b263f598962f752e7bd23badd44897e2966d376d1a59dca910160405180910390a25092915050565b6115ab8061031483390190565b80356001600160a01b038116811461018f57600080fd5b919050565b600080604083850312156101a757600080fd5b6101b083610178565b946020939093013593505050565b634e487b7160e01b600052604160045260246000fd5b803560ff8116811461018f57600080fd5b600080604083850312156101f857600080fd5b823567ffffffffffffffff8082111561021057600080fd5b818501915085601f83011261022457600080fd5b8135602082821115610238576102386101be565b8160051b604051601f19603f8301168101818110868211171561025d5761025d6101be565b60405292835281830193508481018201928984111561027b57600080fd5b948201945b838610156102a05761029186610178565b85529482019493820193610280565b96506102af90508782016101d4565b9450505050509250929050565b604080825283519082018190526000906020906060840190828701845b828110156102fe5781516001600160a01b0316845292840192908401906001016102d9565b50505060ff949094169201919091525091905056fe60806040523480156200001157600080fd5b50604051620015ab380380620015ab8339810160408190526200003491620002d3565b60018251116200007d5760405162461bcd60e51b815260206004820152600f60248201526e1bdddb995c9cc81c995c5d5c9a5959608a1b60448201526064015b60405180910390fd5b60008160ff1611801562000095575081518160ff1611155b620000d75760405162461bcd60e51b81526020600482015260116024820152701a5b9d985b1a59081d1a1c995cda1bdb19607a1b604482015260640162000074565b6002805460ff191660ff831617905560005b82518160ff16101562000272576000838260ff1681518110620001105762000110620003b9565b6020026020010151905060006001600160a01b0316848360ff16815181106200013d576200013d620003b9565b60200260200101516001600160a01b0316036200019d5760405162461bcd60e51b815260206004820152601860248201527f3020616464726573732063616e2774206265206f776e65720000000000000000604482015260640162000074565b6001600160a01b03811660009081526001602052604090205460ff1615620001fd5760405162461bcd60e51b81526020600482015260126024820152716f776e65722069736e277420756e6971756560701b604482015260640162000074565b6001600160a01b031660008181526001602081905260408220805460ff191682179055815490810182559080527f290decd9548b62a8d60345a988386fc84ba6bc95484008f6362f93160ef3e5630180546001600160a01b0319169091179055806200026981620003cf565b915050620000e9565b506002805460ff191660ff9290921691909117905550620003fd565b634e487b7160e01b600052604160045260246000fd5b80516001600160a01b0381168114620002bc57600080fd5b919050565b805160ff81168114620002bc57600080fd5b60008060408385031215620002e757600080fd5b82516001600160401b0380821115620002ff57600080fd5b818501915085601f8301126200031457600080fd5b81516020828211156200032b576200032b6200028e565b8160051b604051601f19603f830116810181811086821117156200035357620003536200028e565b6040529283528183019350848101820192898411156200037257600080fd5b948201945b838610156200039b576200038b86620002a4565b8552948201949382019362000377565b9650620003ac9050878201620002c1565b9450505050509250929050565b634e487b7160e01b600052603260045260246000fd5b600060ff821660ff8103620003f457634e487b7160e01b600052601160045260246000fd5b60010192915050565b61119e806200040d6000396000f3fe6080604052600436106100a05760003560e01c806342cde4e81161006457806342cde4e81461026957806370398706146102955780638aff87b2146102c55780639ace38c2146102e9578063b759f95414610309578063fe0d94c11461032957610128565b8063025e7c271461016f57806314de327f146101ac57806320c5429b146101ce5780632e38b0da146101ee5780632f54bf6e1461023957610128565b3661012857600034116100f15760405162461bcd60e51b815260206004820152601460248201527363616e27742073656e6420302062616c616e636560601b60448201526064015b60405180910390fd5b60405134815233907f6643d795ec4836e9ebd83ebe59402e7510c7fef7c2d84e7eee10ec77898e1d4a9060200160405180910390a2005b600034116100f15760405162461bcd60e51b815260206004820152601460248201527363616e27742073656e6420302062616c616e636560601b60448201526064016100e8565b34801561017b57600080fd5b5061018f61018a366004610ccd565b610349565b6040516001600160a01b0390911681526020015b60405180910390f35b3480156101b857600080fd5b506101cc6101c7366004610d02565b610373565b005b3480156101da57600080fd5b506101cc6101e9366004610ccd565b6104bc565b3480156101fa57600080fd5b50610229610209366004610d89565b600460209081526000928352604080842090915290825290205460ff1681565b60405190151581526020016101a3565b34801561024557600080fd5b50610229610254366004610db5565b60016020526000908152604090205460ff1681565b34801561027557600080fd5b506002546102839060ff1681565b60405160ff90911681526020016101a3565b3480156102a157600080fd5b506102b56102b0366004610ccd565b6106d1565b6040516101a39493929190610e0f565b3480156102d157600080fd5b506102db60055481565b6040519081526020016101a3565b3480156102f557600080fd5b506102b5610304366004610ccd565b6107fa565b34801561031557600080fd5b506101cc610324366004610ccd565b6108b8565b34801561033557600080fd5b506101cc610344366004610ccd565b610a05565b6000818154811061035957600080fd5b6000918252602090912001546001600160a01b0316905081565b3360009081526001602052604090205460ff166103a25760405162461bcd60e51b81526004016100e890610e8a565b6040518060800160405280856001600160a01b0316815260200184815260200183838080601f01602080910402602001604051908101604052809392919081815260200183838082843760009201829052509385525050506020918201819052600554815260038252604090819020835181546001600160a01b0319166001600160a01b0390911617815591830151600183015582015160028201906104489082610f60565b50606082015160038201805460ff1916600183600281111561046c5761046c610dd7565b0217905550506005546040519091507f08324b3d745b914e3abd4ffbfead91e3b78391a98c173202129215ab933adfbe90600090a2600580549060006104b183611036565b919050555050505050565b806005548111156104df5760405162461bcd60e51b81526004016100e89061104f565b8160026000828152600360208190526040909120015460ff16600281111561050957610509610dd7565b036105265760405162461bcd60e51b81526004016100e890611086565b60016000848152600360208190526040909120015460ff16600281111561054f5761054f610dd7565b146105ae5760405162461bcd60e51b815260206004820152602960248201527f6f6e6c7920617070726f766564207472616e73616374696f6e732063616e206260448201526819481c995d9bdad95960ba1b60648201526084016100e8565b600083815260046020908152604080832033845290915290205460ff166106215760405162461bcd60e51b815260206004820152602160248201527f6f6e6c7920617070726f76656420766f74652063616e206265207265766f6b656044820152601960fa1b60648201526084016100e8565b6000838152600460209081526040808320338085529252808320805460ff191690555185927fd9a1b8a4fff0c34c25f9e7657b22dd644c144c0ad8640056ff46bc724c0ef02891a3600061067484610c3c565b60025490915060ff90811690821610156106cb576000848152600360208190526040808320909101805460ff191690555185917fdb43aa42235c8d63908794a952603e8d43a549383d13123c3d893a3fc2e6249591a25b50505050565b6000818152600360209081526040808320815160808101835281546001600160a01b0316815260018201549381019390935260028101805485946060948694859492939092918401919061072490610ed7565b80601f016020809104026020016040519081016040528092919081815260200182805461075090610ed7565b801561079d5780601f106107725761010080835404028352916020019161079d565b820191906000526020600020905b81548152906001019060200180831161078057829003601f168201915b5050509183525050600382015460209091019060ff1660028111156107c4576107c4610dd7565b60028111156107d5576107d5610dd7565b9052508051602082015160408301516060909301519199909850919650945092505050565b6003602052600090815260409020805460018201546002830180546001600160a01b0390931693919261082c90610ed7565b80601f016020809104026020016040519081016040528092919081815260200182805461085890610ed7565b80156108a55780601f1061087a576101008083540402835291602001916108a5565b820191906000526020600020905b81548152906001019060200180831161088857829003601f168201915b5050506003909301549192505060ff1684565b3360009081526001602052604090205460ff166108e75760405162461bcd60e51b81526004016100e890610e8a565b8060055481111561090a5760405162461bcd60e51b81526004016100e89061104f565b8160026000828152600360208190526040909120015460ff16600281111561093457610934610dd7565b036109515760405162461bcd60e51b81526004016100e890611086565b6000838152600460209081526040808320338085529252808320805460ff191660011790555185927f4bb8c663d9b8072a08498cc23b7da87f22803344e27775f0624a9ab201e8704691a360006109a784610c3c565b60025490915060ff908116908216106106cb576000848152600360208190526040808320909101805460ff191660011790555185917f77b92c0722e5bbe8d1413b7fbec6093bc4dc966a65832498dc8c2c67d9a937cc91a250505050565b3360009081526001602052604090205460ff16610a345760405162461bcd60e51b81526004016100e890610e8a565b80600554811115610a575760405162461bcd60e51b81526004016100e89061104f565b8160026000828152600360208190526040909120015460ff166002811115610a8157610a81610dd7565b03610a9e5760405162461bcd60e51b81526004016100e890611086565b60016000848152600360208190526040909120015460ff166002811115610ac757610ac7610dd7565b14610b285760405162461bcd60e51b815260206004820152602b60248201527f6f6e6c7920617070726f766564207472616e73616374696f6e732063616e206760448201526a195d08195e1958dd5d195960aa1b60648201526084016100e8565b6000838152600360205260408082208054600182015492519193926001600160a01b0390911691610b5d9060028601906110bd565b60006040518083038185875af1925050503d8060008114610b9a576040519150601f19603f3d011682016040523d82523d6000602084013e610b9f565b606091505b5050905080610bf05760405162461bcd60e51b815260206004820152601a60248201527f6661696c656420746f2073656e64207472616e73616374696f6e00000000000060448201526064016100e8565b6000858152600360208190526040808320909101805460ff191660021790555186917fddb556f1d2c1ec821e910b019d3685b229db152a0ecd517ca7e24b8bd713928991a25050505050565b60008060005b60005460ff82161015610cc657600460008581526020019081526020016000206000808360ff1681548110610c7957610c79611133565b60009182526020808320909101546001600160a01b0316835282019290925260400190205460ff1615610cb45781610cb081611149565b9250505b80610cbe81611149565b915050610c42565b5092915050565b600060208284031215610cdf57600080fd5b5035919050565b80356001600160a01b0381168114610cfd57600080fd5b919050565b60008060008060608587031215610d1857600080fd5b610d2185610ce6565b935060208501359250604085013567ffffffffffffffff80821115610d4557600080fd5b818701915087601f830112610d5957600080fd5b813581811115610d6857600080fd5b886020828501011115610d7a57600080fd5b95989497505060200194505050565b60008060408385031215610d9c57600080fd5b82359150610dac60208401610ce6565b90509250929050565b600060208284031215610dc757600080fd5b610dd082610ce6565b9392505050565b634e487b7160e01b600052602160045260246000fd5b60038110610e0b57634e487b7160e01b600052602160045260246000fd5b9052565b60018060a01b038516815260006020858184015260806040840152845180608085015260005b81811015610e515786810183015185820160a001528201610e35565b81811115610e6357600060a083870101525b50601f01601f1916830160a0019150610e8190506060830184610ded565b95945050505050565b60208082526017908201527f6d73672e73656e646572206973206e6f74206f776e6572000000000000000000604082015260600190565b634e487b7160e01b600052604160045260246000fd5b600181811c90821680610eeb57607f821691505b602082108103610f0b57634e487b7160e01b600052602260045260246000fd5b50919050565b601f821115610f5b57600081815260208120601f850160051c81016020861015610f385750805b601f850160051c820191505b81811015610f5757828155600101610f44565b5050505b505050565b815167ffffffffffffffff811115610f7a57610f7a610ec1565b610f8e81610f888454610ed7565b84610f11565b602080601f831160018114610fc35760008415610fab5750858301515b600019600386901b1c1916600185901b178555610f57565b600085815260208120601f198616915b82811015610ff257888601518255948401946001909101908401610fd3565b50858210156110105787850151600019600388901b60f8161c191681555b5050505050600190811b01905550565b634e487b7160e01b600052601160045260246000fd5b60006001820161104857611048611020565b5060010190565b60208082526019908201527f7472616e73616374696f6e20646f65736e277420657869737400000000000000604082015260600190565b6020808252601f908201527f7472616e73616374696f6e20697320616c726561647920657865637574656400604082015260600190565b60008083546110cb81610ed7565b600182811680156110e357600181146110f857611127565b60ff1984168752821515830287019450611127565b8760005260208060002060005b8581101561111e5781548a820152908401908201611105565b50505082870194505b50929695505050505050565b634e487b7160e01b600052603260045260246000fd5b600060ff821660ff810361115f5761115f611020565b6001019291505056fea2646970667358221220f6fcea82809d26ba6171cd42638981d8a35d7e3b18c53ef3a849c4efecab9bb364736f6c634300080f0033a26469706673582212207310c65789a9feb24f2572b96ea4461d0339eea5b8a1df3e8d8606fbcc2e2c3064736f6c634300080f0033",
    "linkReferences": {}
  },
  "methodIdentifiers": {
    "contracts(address,uint256)": "ed23f8c3",
    "deploy(address[],uint8)": "ed547bf7"
  },
  "id": 8
}